:020000040800F2
:10000000500900204D020008A51E000881180008B4
:10001000A11E00081D0D00088B3000080000000024
:10002000000000000000000000000000690200085D
:100030001D150008000000006D0200086F02000896
:1000400071020008710200087102000871020008C4
:1000500071020008710200087102000871020008B4
:1000600071020008710200087102000871020008A4
:100070007102000871020008710200087102000894
:100080007102000871020008710200087102000884
:100090007102000871020008710200081F150008B3
:1000A0007102000871020008710200087102000864
:1000B0007102000871020008710200087102000854
:1000C0007102000871020008710200087102000844
:1000D00071020008B52D00087102000871020008C5
:1000E0007102000871020008710200087102000824
:1000F0007102000871020008710200087102000814
:100100007102000871020008710200087102000803
:100110007102000871020008652A000871020008D7
:100120007102000871020008E90E0008710200085F
:1001300071020008710200087102000871020008D3
:1001400071020008710200087102000871020008C3
:100150009111000871020008710200087102000884
:1001600071020008710200087102000871020008A3
:10017000710200087102000871020008000000000E
:100180007102000871020008710200087102000883
:100190007102000871020008710200087102000873
:1001A00000000000000000007102000800F002F8EA
:1001B00000F03CF80AA090E8000C82448344AAF1C5
:1001C0000107DA4501D100F031F8AFF2090EBAE8C3
:1001D0000F0013F0010F18BFFB1A43F0010318477B
:1001E000C4620000E4620000103A24BF78C878C1FD
:1001F000FAD8520724BF30C830C144BF04680C602D
:10020000704700000023002400250026103A28BF74
:1002100078C1FBD8520728BF30C148BF0B60704778
:100220001FB505F0CFFB1FBD10B510BD00F002F9E2
:100230001146FFF7F5FF04F037FB00F020F903B497
:10024000FFF7F2FF03BC03F013F900000C4801684C
:1002500041F4700101600B4880470B480047FEE7FE
:10026000FEE7FEE7FEE7FEE7FEE7FEE7FEE7FEE766
:10027000FEE7000005480649044A064B70470000A7
:1002800088ED00E0CD270008AD01000850050020F2
:1002900050090020500500209FED1A1AF5EE000AC3
:1002A00040EE010ABDEEE00AF5EEC00A10EE100ABB
:1002B000F1EE10FA38BF401E00EE100A1349F7EEB7
:1002C000001AB8EEC00A30EEC00ADFED0F0A20EEC9
:1002D000200AFCEEC00A10EE900AC0F3080000EEFF
:1002E000900A01EB8000F8EE600A90ED011A70EEC2
:1002F000600A90ED000A71EEE01A21EE800A00EE2D
:10030000810A704783F9223E00000044A05C000887
:10031000DFED190AB5EEC00A60EE200ABDEEE01A64
:1003200011EE100AF1EE10FA38BF401E00EE100A6E
:100330001349F7EE001AB8EEC00A30EEC00ADFED3E
:100340000F0A60EE200ABCEEE00A10EE100AC0F3BD
:10035000080000EE100A01EB8000B8EE400A90EDB4
:10036000011A70EEC00A90ED000A71EEE01A21EE5B
:10037000800A00EE810A704783F9223E00000044A3
:10038000A05C000870474FF0000200B51346944689
:100390009646203922BFA0E80C50A0E80C50B1F1DD
:1003A0002001BFF4F7AF090728BFA0E80C5048BFF1
:1003B0000CC05DF804EB890028BF40F8042B08BF8F
:1003C000704748BF20F8022B11F0804F18BF00F88B
:1003D000012B7047704770477047704710B500F0A9
:1003E00009F8006810BD10B5044600F003F8046079
:1003F00010BD000000487047EC0400201FB584B019
:1004000000200A9C06AB04AA02A90094AFF3008066
:1004100018B1DDE9020108B010BD0348204000F02A
:1004200037F800200146F6E70000207C00487047BE
:10043000EC0400207546FFF7F9FFAE46050069465B
:10044000534620F00700854618B020B5FFF712FF8D
:10045000BDE820404FF000064FF000074FF00008C5
:100460004FF0000B21F00701AC46ACE8C009ACE846
:10047000C009ACE8C009ACE8C0098D46704710B5AA
:100480000446AFF300802046BDE81040FFF7D7BE1A
:1004900010B500F009F8BDE81040AFF30080002867
:1004A00001D002F0E5BF704710B5022803D041012A
:1004B00003D50DA112E0002010BD010101D50FA14F
:1004C0000CE0C10001D511A108E0810001D512A105
:1004D00004E0400001D513A100E0002115A000F0C8
:1004E00039F8012010BD0000496E76616C69642006
:1004F0004F7065726174696F6E00000044697669BF
:100500006465204279205A65726F00004F766572EB
:10051000666C6F7700000000556E646572666C6FE4
:1005200077000000496E65786163742052657375C9
:100530006C7400005349474650453A204172697433
:10054000686D6574696320657863657074696F6E42
:100550003A20000070B505460C460A2000E06D1CEC
:1005600002F088FF35B128780028F8D102E0641C39
:1005700002F080FF14B120780028F8D1BDE8704067
:100580000A2002F077BFCA430260704721B1826837
:1005900042F00102826003E0826822F00102826080
:1005A000704700000021084A1168084A1140D0E94C
:1005B00000231A4383681A43C3681A431143044A49
:1005C000C2F804137047000004230140E030FCFF30
:1005D000002001400146C86C80B2704702460020EE
:1005E00013680B400BB1012000E0002070470000B1
:1005F00030B50246002000235068104C20400D7991
:100600000C6844EA05242043506090680C4C20405C
:10061000D1E903542C438D682C434D7944EA4504B9
:1006200020439060D06A20F470000C7D641EE4B218
:10063000234340EA0350D06230BD0000FFFEFFFCC0
:10064000FDF7FFC0F0B504460D4600200021092D3E
:1006500011DDE068A5F10A0606EB4607072606FA53
:1006600007F18843A5F10A0606EB460603FA06F1F0
:100670000843E0600CE0206905EB4507072606FA11
:1006800007F1884305EB450603FA06F108432061AC
:10069000072A0FDA606B561E06EB86071F2606FA3E
:1006A00007F18843561E06EB860605FA06F1084355
:1006B000606322E00D2A0FDA206BD61F06EB860757
:1006C0001F2606FA07F18843D61F06EB860605FAB1
:1006D00006F10843206310E0E06AA2F10D0606EB84
:1006E00086071F2606FA07F18843A2F10D0606EBDE
:1006F000860605FA06F10843E062F0BD816841F024
:10070000804181607047000038B10849096841F4B0
:100710000001074AC2F8041306E00449096821F4FD
:100720000001034AC2F8041370470000042301408B
:100730000020014010B52DED028BB0EE408AB0EEE6
:10074000480A02F0B7FCBDEC028B10BD10B52DEDD0
:10075000028BB0EE408AF0EE608AF0EE680AB0EEEE
:10076000480A02F03DFDBDEC028B10BD10B52DED29
:10077000028BB0EE408AB0EE480AFFF78DFDBDEC6B
:10078000028B10BDF0EE400AF5EEC00AF1EE10FA51
:1007900002DDB0EE600A7047B1EE600AFBE70000D0
:1007A00018B19FED020A80ED000A704700000000BA
:1007B0007047000070B52DED0C8B84B006460C46DA
:1007C00015469FED990AF0EE408A9FED970AB0EE2C
:1007D000409A9FED950AF0EE40BA9FED930AF0EE35
:1007E000409A9FED910AB0EE40AA0EB104B11DB936
:1007F00004B0BDEC0C8B70BD8C48FFF7D1FF8C486A
:10080000FFF7D6FF8A48D0ED000A9FED8A1A60EE06
:10081000810AB0EE600A00F039F9F0EE408A28EE65
:10082000A80AF0EE408A8248D0ED000AB0EE001A25
:1008300060EE810A9FED7F1A60EE810AB0EE600AD9
:1008400000F024F9B0EE409A29EE090AB0EE409A81
:10085000DFED790AB7EE000A00EEA80ADFED770AAD
:1008600000EEC90ADFED760A20EE200A754880ED19
:10087000000A6E4890ED000ADFED730A80EE201A40
:10088000B7EE000A31EE000A20EE000A6D48D0ED06
:10089000000A80EE801A6D4880ED001A94ED000A7F
:1008A000B5EEC00AF1EE10FA0DD194ED010AB5EEE5
:1008B000C00AF1EE10FA06D194ED020AB5EEC00AB4
:1008C000F1EE10FA46D09FED580AB0EE408A0020B3
:1008D000019002900390D4ED000A60EEA00A94ED1E
:1008E000011AD4ED011A41EE210A94ED021AD4ED59
:1008F000021A41EE210AB0EE600A00F0A9F8B0EE4B
:10090000408A94ED000A20EE080A8DED010A94ED6C
:10091000010A20EE080A8DED020A94ED020A20EE8B
:10092000080A8DED030ADDED010AF1EE600AB0EE72
:10093000600AFFF7FFFEF0EE409A9DED031AF0EE1D
:10094000410A9DED021AB0EE410AFFF7FFFEB0EE3C
:1009500040AA07E09FED340AF0EE409A9FED320A7C
:10096000B0EE40AA95ED000AB5EEC00AF1EE10FA1D
:100970000DD195ED010AB5EEC00AF1EE10FA06D1DF
:1009800095ED020AB5EEC00AF1EE10FA3CD0B0EED9
:10099000690A00F07BF8B0EE408AB0EE690AFFF712
:1009A000E5FEB0EE40DAB0EE4A0A00F06FF8F0EE85
:1009B00040AAB0EE4A0AFFF7D9FEB0EE40BA28EEE0
:1009C0002A0AD5ED010A20EE200AD5ED000A0DEE27
:1009D000200A68EE0B0A95ED021A00EE810AB0EECD
:1009E00040CA95ED010A20EE0B0AD5ED020A0AEE87
:1009F000E00AF0EE40CAF0EE6C0AB0EE4C0AFFF7E7
:100A0000A5FEF0EE40BA03E09FED070AF0EE40BA13
:100A1000B0EE4A1AF0EE690AB0EE6B0A304602F008
:100A2000D9FE00BFE4E6000000000000C000002086
:100A3000C400002035FA8E3CC1BFAD3B9DF8C536E1
:100A40002F7C1C41C8000020506CC24ACC00002002
:100A5000F0EE400AF6EE001A60EEA11AB0EE611A4E
:100A6000B0EE600A10EE100A0749A1EB600000EE3C
:100A7000100A21EE002AF7EE081A42EE401A61EE43
:100A8000801AB0EE610A7047DF59375F10B52DED5F
:100A9000028BB0EE408AB0EE480AFFF739FCBDEC9D
:100AA000028B10BD2DE9F0412DED028B9AB0054669
:100AB000B0EE408A0E4617469846002017901890D0
:100AC00019901490159016904DB146B13FB1B8F100
:100AD000000F04D0B5EEC08AF1EE10FA05D1002067
:100AE0001AB0BDEC028BBDE8F08196ED000A8DEDE9
:100AF000170A96ED010A8DED180A96ED020A8DEDA2
:100B0000190A97ED000A8DED140A97ED010A8DED93
:100B1000150A97ED020A8DED160A17AA14A92846A0
:100B200002F0AAFC402104A8FFF72DFC0020009051
:100B3000019002900390002417A904A804F024FA5D
:100B400000BF30E004A800EB041090ED000AD5EDE2
:100B5000000A20EE200A04A800EB0410D0ED010AE0
:100B600095ED011A00EE810A04A800EB0410D0ED07
:100B7000020A95ED021A00EE810A04A800EB0410A7
:100B8000D0ED030A95ED031A00EE810A20EE080A63
:100B9000F0EE000A80EE201A684600EB840080ED3B
:100BA000001A601CC4B2042CCCDB002410E005EB5E
:100BB000840090ED000A684600EB8400D0ED000A46
:100BC00030EE200A05EB840080ED000A601CC4B200
:100BD000042CECDB284604F035F9012080E7000006
:100BE00010B50446294860649FED293ADFED282AB4
:100BF0009FED282ADFED261A9FED261ADFED250A44
:100C0000B1EE020A2046616C8847204990200151CC
:100C100001599FED213ADFED202A9FED1E2ADFEDDD
:100C20001E1A9FED1C1ADFED1B0AB2EE040A04F136
:100C30004C0088471549DC20015101599FED143AB9
:100C4000DFED132A9FED132ADFED111A9FED111A24
:100C5000DFED100AB1EE080A04F1980088470B494D
:100C60004FF49470015101599FED0C3ADFED0B2ABE
:100C70009FED082ADFED091A9FED061ADFED050A40
:100C8000B3EE040A04F1E400884710BD1D4D0008CE
:100C90000000484200000000000096430000164497
:100CA00010B504F047F900BF03F0ACFC0028FBD0FE
:100CB00001F004FA03E003F05DFE164908701548E0
:100CC00000780028F7D15A2147F2305002F038FE60
:100CD00003F048FD03F082FD0F48FFF781FF04F0A9
:100CE0006DF801F099FE01F0A5FD002408E0204612
:100CF00004F098F840F2C52002F022FF601CC4B254
:100D0000042CF4DB01F0EEF900F052FE01F0C0FE1D
:100D100010BD0000AB0000207402002000BFFEE701
:100D200010B52DED028B0446B0EE408AF0EE608ADD
:100D30006C48A0642046A16C884784ED0A8AC4ED03
:100D40000B8A94ED0D0A84ED0E0A94ED0A0AD4ED97
:100D50000B0A30EE600A84ED0D0A94ED100AD4ED12
:100D60000D0A30EE200A84ED100A94ED000AD4ED4D
:100D70000D0A20EE200A84ED030A94ED030AD4ED57
:100D8000060AB4EEE00AF1EE10FA02D294ED030A7C
:100D900001E094ED060A84ED030A94ED030AD4ED14
:100DA000060AF1EE600AB4EEE00AF1EE10FA02DD96
:100DB00094ED030A03E094ED060AB1EE400A84EDD7
:100DC000030A94ED010AD4ED100A20EE200A84ED06
:100DD000040A94ED040AD4ED070AB4EEE00AF1EE39
:100DE00010FA02D294ED040A01E094ED070A84EDB2
:100DF000040A94ED040AD4ED070AF1EE600AB4EE99
:100E0000E00AF1EE10FA02DD94ED040A03E094ED3D
:100E1000070AB1EE400A84ED040A94ED0D0AD4ED00
:100E20000E0A30EE600AD4ED020A20EE200A84EDAC
:100E3000050A94ED050AD4ED080AB4EEE00AF1EED5
:100E400010FA02D294ED050A01E094ED080A84ED4F
:100E5000050A94ED050AD4ED080AF1EE600AB4EE35
:100E6000E00AF1EE10FA02DD94ED050A03E094EDDC
:100E7000080AB1EE400A84ED050A94ED030AD4EDA8
:100E8000040A30EE200AD4ED050A30EE200A84ED83
:100E90000C0A94ED0C0AD4ED090AB4EEE00AF1EE66
:100EA00010FA02D294ED0C0A01E094ED090A84EDE7
:100EB0000C0A94ED0C0AD4ED090AF1EE600AB4EEC6
:100EC000E00AF1EE10FA02DD94ED0C0A03E094ED75
:100ED000090AB1EE400A84ED0C0A94ED0C0ABDEC4F
:100EE000028B10BD954D000810B5A349A34800F032
:100EF00097FA00287ED04FF08151A04800F078F991
:100F00009D499E4800F08EF99D4800789C4949789B
:100F100040EA0120C0F30A00C0F5806099490880CA
:100F200097484078C0109649897840EA4110C0F34C
:100F30000A00C0F58060934948809148807880110C
:100F40008F49C97840EA81008D49097940EA8120BA
:100F5000C0F30A00C0F580608A498880884800791B
:100F600040108749497940EAC110C0F30A00C0F532
:100F700080608449C88082484079001180080872E6
:100F80007F484079C0F3011048727D4880797C49E0
:100F9000C97940EA012000B27A4948817848007A4C
:100FA0007749497A40EA012000B27649888174483D
:100FB000807A7349C97A40EA012000B27149C88138
:100FC0006F48007B08746E48407B48746C48807B97
:100FD0006B49C97B40EA01206A4948820846807C07
:100FE00000F0010008750846807CC0F34000487599
:100FF000084600E0BEE0807CC0F3800088750846AB
:10100000807CC0F3C000C8750846807CC0F3001027
:1010100088760846807CC0F34010C8760846807CFD
:10102000C0F3801008760846807CC0F3C010487674
:101030000846B0F90000B0F5257F02DD4FF42570B9
:1010400002E05048B0F900004E4908800846B0F967
:10105000000010F5257F01DA4B4802E04948B0F95D
:101060000000484908800846B0F90200B0F5257F25
:1010700002DD4FF4257002E04248B0F90200414918
:1010800048800846B0F9020010F5257F01DA3E4895
:1010900002E03C48B0F902003A4948800846B0F9FD
:1010A0000400B0F5257F02DD4FF4257002E03548DD
:1010B000B0F90400334988800846B0F9040010F5FF
:1010C000257F01DA304802E02E48B0F904002D49AE
:1010D00088800846B0F90600B0F5257F02DD4FF4A0
:1010E000257002E02748B0F906002649C880084666
:1010F000B0F9060010F5257F01DA234802E0214807
:10110000B0F906001F49C8800846B0F90A00B0F5DA
:10111000806F02DD4FF4806002E01A48B0F90A00E7
:10112000184948810846B0F90A0010F5806F01DAC5
:10113000164802E01348B0F90A00124948810846EF
:10114000B0F90C00B0F5806F02DD4FF4806002E072
:101150000C48B0F90C000B4988810846B0F90C0026
:1011600010F5806F01DA094802E00648B0F90C007A
:101170000449888110BD00000080201040640240B6
:10118000F80300200A0400206CFDFFFF00FCFFFFB5
:1011900010B51149114800F021F9D8B10E490F4896
:1011A00000F026F803F0A8FB0D4890ED010ADFEDF2
:1011B0000D0A20EE200A0C4880ED060A0B4890ED3F
:1011C000050AB1EE400ADFED070A20EE200A0648C4
:1011D00080ED080A10BD000000080020886402406D
:1011E0003402002033336542BC040020B0010020EB
:1011F0000246094B9A4201D2084801E006481038DD
:1012000001F000531BB1064B0B40C36002E0044BDE
:101210000B40836070470000106402400060024091
:101220007D0F7D0F0246094B9A4201D2084801E02A
:101230000648103801F000531BB1064B0B40C36049
:1012400002E0044B0B4083607047000010640240D2
:10125000006002407D0F7D0F21B1026842F0010263
:10126000026003E0026822F00102026070470000A1
:10127000016821F00101016000210160416081608D
:10128000C1600161212141614A49884204D13D2167
:10129000484A103A91608CE046491831884205D19D
:1012A0004FF47461434A103A916082E04149303111
:1012B000884205D14FF474113E4A103A916078E0AB
:1012C0003C494831884205D14FF07461394A103A9F
:1012D00091606EE037496031884204D13649354A21
:1012E000103AD16065E033497831884204D13349FE
:1012F000304A103AD1605CE02E499031884204D1E6
:101300002F492C4A103AD16053E02A49A83188422B
:1013100005D14FF03D51274A103AD16049E02949A3
:10132000884204D13D21274A083A116041E025490D
:101330001831884205D14FF47461224A083A11608D
:1013400037E020493031884205D14FF474111D4AED
:10135000083A11602DE01B494831884205D14FF011
:101360007461184A083A116023E0164960318842D6
:1013700004D11149134A121F11601AE01149783142
:10138000884204D10D490F4A121F116011E00D4926
:101390009031884204D10A490A4A121F116008E0BC
:1013A0000849A831884204D14FF03D51054A121F27
:1013B00011607047106002403D000020400F002087
:1013C00000003D2010640240014600200A6802F03F
:1013D00001020AB1012000E00020704730B5034649
:1013E0000A46002000240B4DAB4201D20A4901E01D
:1013F0000849103902F000550DB14C6800E00C6846
:10140000064D2C4004EA02050DB1012000E0002049
:1014100030BD000010640240006002407D0F7D0F6F
:1014200070B50246002000240025124EB24201D2BF
:10143000114B01E00F4B103B104E0E4036B11E26F3
:1014400006EAD124166806EA040502E0566906F0A9
:10145000800501F000560EB15C6800E01C68084E83
:10146000344004EA010616B10DB1012000E000206D
:1014700070BD000010640240006002403C0F3C0F51
:101480007D0F7D0F10B501F080034BB122B1436990
:1014900043F08003436103E0436923F08003436129
:1014A00080290BD02AB1036801F01E042343036096
:1014B00004E0036801F01E04A343036010BD0000B4
:1014C00010B500220268134B1A40CC680B68234306
:1014D0004C6923438C692343CC6923430C6A23431F
:1014E0004C6A23438C6A23434C6B23438C6B23430A
:1014F0001A430260426922F00702D1E90B34234308
:101500001A4342610B6943604B6883608B68C36018
:1015100010BD00003F801CF041607047704710B55F
:101520004FF4807000F012F840B14FF4807000F07A
:1015300007F803F0E9F9172000F0DCFE10BD000009
:101540000149086070470000143C0140014600203A
:10155000034A12680A400AB1012000E000207047E7
:10156000143C0140002123498279002A3AD00A46DE
:10157000126803689A430B461A600A1D12680368D2
:101580009A430B1D1A60027911440A6803681A43D2
:101590000A60184A0832126803689A43154B0833E8
:1015A0001A601A1D126803689A43124B0C331A60B2
:1015B0004279102A0ED11A1F126803681A430D4B84
:1015C00008331A601A1D126803681A43094B0C335A
:1015D0001A600DE00749427911440A6803681A430A
:1015E0000A6005E0027911440A6803689A430A60B8
:1015F00070470000003C014030B10749096841F4E0
:101600008061054A116005E00349096821F48061A1
:10161000014A116070470000003C024070B504466A
:101620000A460026092502B909E0012A01D116025D
:1016300005E0022A01D1160201E04FF4407600F0E5
:101640009FF80546092D28D11548006820F4407000
:10165000134908600846006830430860084600687F
:1016600020F0F80008600846006844F002010843D2
:101670000B4908600846006840F48030086000F0BC
:101680007FF805460648006820F00200044908601B
:101690000846006820F0F8000860284670BD000089
:1016A000103C024009201349096801F48031B1F56A
:1016B000803F01D101201CE00E49096801F01001B2
:1016C00009B1062015E00B49096801F4807109B1E0
:1016D00002200EE00749096801F0E00109B1072086
:1016E00007E00449096801F0020109B1082000E09F
:1016F000092070470C3C02400348006840F000405D
:101700000149086070470000103C024030B50246B5
:101710000C46092500F034F80546092D19D10E486C
:10172000006820F440700C4908600846006840F4E6
:10173000007008600846006840F00100086014600E
:1017400000F01EF805460448006820F00100024938
:101750000860284630BD0000103C02400548006883
:1017600000F0004028B1044802490C3908600348E1
:1017700008607047103C024023016745AB89EFCDFC
:1017800008B509200090FFF78DFF009002E0FFF7F9
:1017900089FF00909DF800000128F8D09DF8000016
:1017A00008BDF0B50A4600210023002400BF3DE03B
:1017B000012505FA01F3156805EA03049C4234D1BA
:1017C00005684F000326BE40B543056015794E00FD
:1017D000B5400668354305601579012D02D01579AD
:1017E000022D16D185684F000326BE40B5438560A3
:1017F00055794E00B54086683543856045680126B9
:101800008E40B5434560456896798E40B6B2354303
:101810004560C5684F000326BE40B543C560D57915
:101820004E00B540C6683543C560491C1029BFD37A
:10183000F0BDF0B5002300244D07ED0E02FA05F3CC
:10184000CE1000F1200555F826504E07F70E0F2652
:10185000BE40B543CF1000F1200646F82750CE1009
:1018600000F1200555F8265045EA0304CE1000F19A
:10187000200545F82640F0BD41837047018370473D
:1018800000BFFEE7F0B50546059C00207FE093ED24
:10189000050A00EB4006404F07EB8606D6ED000A2E
:1018A00020EE200AD3ED060A00EB400607EB860681
:1018B00096ED011A00EE810AD3ED070A00EB40060F
:1018C00007EB860696ED021A00EE810A334E06EB10
:1018D0008006D6ED000A30EE200A05EB800686ED84
:1018E000000A93ED010A00EB40062D4F07EB860638
:1018F000D6ED000A20EE200AD3ED020A00EB4006E6
:1019000007EB860696ED011A00EE810AD3ED030A75
:1019100000EB400607EB860696ED021A00EE810A00
:10192000204E06EB8006D6ED000A30EE200A01EBD1
:10193000800686ED000A94ED010A00EB40061A4F7E
:1019400007EB8606D6ED000A20EE200AD4ED020A47
:1019500000EB400607EB860696ED011A00EE810AC1
:10196000D4ED030A00EB400607EB860696ED021A5B
:1019700000EE810A0D4E06EB8006D6ED000A30EE31
:10198000200A02EB800686ED000A461CF0B203280E
:10199000FFF67DAFF0BD000028000020EC01002024
:1019A0004C000020F80100207000002004020020FC
:1019B00010B500F01BF8172209490A4800F0D4FCC2
:1019C00001221146084800F057FD01220221064875
:1019D00000F052FD0021102000F074FC10BD00004A
:1019E000980100207C5C00080050014000B585B0E3
:1019F0000121022000F09EFA0121880300F0CAFABA
:101A00000821012000F01EFE4FF48070009000209D
:101A10008DF8040001208DF8060000208DF80700E5
:101A200003208DF8050069461048FFF7BAFE4FF411
:101A30008070029000208DF80C0008208DF80D00B9
:101A400001208DF80E0002A8FFF78CFD17208DF8FD
:101A5000100000208DF811008DF8120001208DF883
:101A6000130004A800F020FA05B000BD00040240F5
:101A700010B523E01348407A012809D10220124909
:101A80000870124908701249087002F09DFE16E0B5
:101A90000C48407A02280AD101200B490870022024
:101AA0000A4908700A49087002F08EFE07E000201B
:101AB000054908700549087005490870DAE700BF54
:101AC00010BD00000A040020BA000020BB00002066
:101AD000BC00002010B52DED028BB0EE408A2448EA
:101AE000007820B3234890ED000AF0EE400AB0EEF3
:101AF000480A214803F06AF8204880ED000A90ED7A
:101B0000000AB5EEC00AF1EE10FA03D29FED1C0AEE
:101B100080ED000A194890ED000ABCEEC00A10EEF4
:101B2000100A84B22146174801F0FFF81DE0114861
:101B300090ED000AB4EEC80AF1EE10FA10D2124885
:101B40000078401C10490870084600780A2807DD14
:101B50000120074908709FED0D0A0D4880ED040A29
:101B600041F28731074801F0E0F8BDEC028B10BD6F
:101B7000A00000201C000020A4030020AC000020D6
:101B80000000000000040040AA0000205555D0438A
:101B90007402002008B58249824802F059FF824849
:101BA0007F4B824A824900908248FFF76BFE7C4857
:101BB000007800F00100002845D07F480078E8BB9D
:101BC000012141F2883000F0BDFEDFED7C0A9FED7F
:101BD0007C0A7C497C4803F075F8744A74497B4858
:101BE000FEF7E8FD7A4B1A1F111F784802F096FCA9
:101BF0006F4890ED000A774880ED000A764880ED46
:101C0000000A764880ED000A694890ED010A7148A3
:101C100080ED010A704880ED010A704880ED010AEC
:101C2000634890ED020A6B4880ED020A6A4880ED35
:101C3000020A6A4880ED020A5F4800E004E000788A
:101C4000401C5D490870A3E0634890ED000A6348BA
:101C500080ED000A5F4890ED000A5F4880ED000AC1
:101C600090ED000A5E48D0ED000A20EE200A5B48A5
:101C7000D0ED000A5A4890ED011A00EE810A4C4856
:101C8000D0ED000A564890ED021A00EE810A514844
:101C900080ED000A504890ED010A504880ED010A9D
:101CA0004C4890ED010A4C4880ED010A90ED010A84
:101CB0004B48D0ED000A20EE200A4848D0ED010A3A
:101CC000474890ED011A00EE810A3948D0ED010A2B
:101CD000434890ED021A00EE810A3E4880ED010A69
:101CE0003D4890ED020A3D4880ED020A394890EDEA
:101CF000020A394880ED020A90ED020A3848D0ED18
:101D0000000A20EE200A3548D0ED020A344890ED52
:101D1000011A00EE810A2648D0ED020A304890ED03
:101D2000021A00EE810A2B4880ED020A1F4B024680
:101D300020499FED2C0A2548FEF7B4FE244B1A1FBC
:101D4000111F224802F0EAFB27480088C0B902F0C0
:101D5000A1FD264890ED000A254880ED000A2348A1
:101D600090ED010A224880ED010A204890ED020A18
:101D70001F4880ED020A1C480088401C1A49088050
:101D80001C48007820B101201B49087002F078FD42
:101D90000348D0ED040AB0EE600AFFF79BFE08BDD1
:101DA000B001002099010020DC0100202802002061
:101DB0001C02002010020020A6000020008089459F
:101DC00000389C4594000020A4030020400200201D
:101DD0003C020020680200205C020020500200202B
:101DE000705C00086F12833AA8000020D001002028
:101DF000EC010020A0000020BC00002070B50646C9
:101E00000C4615461548007838B3288888B9144818
:101E100090ED000A134880ED000A114890ED010A88
:101E2000104880ED010A0E4890ED020A0D4880ED41
:101E3000020A0D4802782B460C490A4802F05EFC63
:101E4000084890ED000A84ED000A90ED010A84ED47
:101E5000010A90ED020A84ED020A70BDA000002084
:101E6000D0010020EC010020B00100201002002071
:101E7000094A1288521C12B2074B1A8091ED000ACF
:101E8000064A82ED000A91ED010A82ED010A91ED08
:101E9000020A82ED020A7047A2000020D001002051
:101EA00000BFFEE77047000070B5002100230F223D
:101EB000C4781CB3174C246804F4E064C4F5E064EF
:101EC000C4F30721C1F10404E3B20A4144789C4001
:101ED000E1B28478144021430C07210E0E4C0578A2
:101EE0006155047804F01F050124AC4005786D119C
:101EF000AD0005F1E025C5F8004109E0047804F0E3
:101F00001F050124AC40054D0678761145F82640A2
:101F100070BD00000CED00E000E400E080E100E0B6
:101F200002490143024A1160704700000000FA05AF
:101F30000CED00E029B1064A12680243044B1A6016
:101F400004E0034A12688243014B1A6070470000A4
:101F50003038024029B1064A12680243044B1A6025
:101F600004E0034A12688243014B1A607047000084
:101F70004038024029B1064A12680243044B1A60F5
:101F800004E0034A12688243014B1A607047000064
:101F90002038024029B1064A12680243044B1A60F5
:101FA00004E0034A12688243014B1A607047000044
:101FB0004438024029B1064A12680243044B1A60B1
:101FC00004E0034A12688243014B1A607047000024
:101FD00024380240F0B5002100220024022500260A
:101FE0000223324F3F6807F00C0121B1042905D0CC
:101FF000082937D105E02E4F076036E02D4F0760E6
:1020000033E02A4F3F1F3F68C7F38056274F3F1FDB
:102010003F6807F03F036EB1264FB7FBF3F7DFF8D9
:102020008CC0ACF1040CDCF800C0CCF3881C07FBBE
:102030000CF40CE01E4FB7FBF3F7DFF870C0ACF107
:10204000040CDCF800C0CCF3881C07FB0CF4174F21
:102050003F1F3F68C7F301477F1C7D00B4FBF5F7C6
:10206000076002E0124F076000BF00BF0F4F3F68DC
:1020700007F0F0010909104F7A5C0768D740476004
:102080000A4F3F6807F4E051890A0B4F7A5C4768B2
:10209000D7408760054F3F6807F46041490B064F02
:1020A0007A5C4768D740C760F0BD0000083802403E
:1020B0000024F400001BB7000000002000B589B028
:1020C00018216846FEF75FF906226946044800F0C9
:1020D00059FA694606A8FFF7CBFE09B000BD00001B
:1020E0000400010800B597B001210220FFF722FF8C
:1020F00001211020FFF74EFF01218805FFF71AFF8D
:10210000072211463A48FFF794FB802015900220E1
:102110008DF8580000208DF85A0003208DF85900E2
:1021200001208DF85B0015A93148FFF73AFB3148D3
:1021300000F09AFE304811900020ADF84800ADF84C
:102140004A004FF48060ADF84C000420ADF84E001A
:102150000020ADF8500011A9264800F027FF01210A
:10216000244800F06BFE01224021224800F072FE5C
:102170003A208DF8400000208DF8410001208DF8B4
:1021800042008DF8430010A8FFF78EFE1B48FFF7B2
:102190006FF84FF0006001901648001D029018483B
:1021A00003900020049012200590002006904FF428
:1021B000806007900020089009904FF480700A908A
:1021C0004FF440300B9000200C900D900E900F902B
:1021D00001A90A48FFF774F9012210210748FFF707
:1021E00051F901210548FFF737F817B000BD00008D
:1021F0000004024000100140A0860100406402403B
:10220000F803002000B587B001212020FFF792FEDF
:1022100001210805FFF7BEFE4FF460700590022013
:102220008DF8180000208DF81A0001208DF81B0091
:1022300003208DF8190005A92048FFF7B2FA0522FE
:1022400007211E48FFF7F5FA052208211B48FFF772
:10225000F0FA052209211948FFF7EBFA01210805D8
:10226000FFF7A8FE00214FF48010FFF7A3FE002027
:10227000ADF800004FF48270ADF802000020ADF818
:1022800004000220ADF806000120ADF8080040026D
:10229000ADF80A003820ADF80C000020ADF80E00B3
:1022A0000720ADF810006946054800F0FCF8012150
:1022B000034800F0D5F807B000BD0000001402404C
:1022C000005001400A4A12884FF2C7731A40084B67
:1022D0001A801A46128802431A801A4612880A4344
:1022E0001A801A46128842F040021A807047000095
:1022F0000050014010B5044600211848FEF7ACFF1D
:10230000002116481830FEF7A7FF00BF1348FFF75B
:102310005BF80028FAD100BF10481830FFF754F8D6
:102320000028F9D10E490D481830FEF761FF0D491C
:102330000A48FEF75DFF21460848FFF7EDF8214601
:1023400006481830FFF7E8F8012104481830FEF776
:1023500083FF01210148FEF77FFF10BD706402403A
:10236000000C00203000002070B590B005460E46ED
:10237000144601218805FFF7DDFD44208DF83C005F
:1023800000208DF83D0002208DF83E0001208DF8E0
:102390003F000FA8FFF788FD2F48FEF769FF00BF39
:1023A0002D48FFF711F80028FAD14FF06060009037
:1023B0002A480190029600200390049405904FF45F
:1023C0008060069000200790089009904FF44030FC
:1023D0000A9000200B900C900D900E9069461E48BC
:1023E000FFF76EF8012210211B48FFF74BF8002180
:1023F0001948FEF731FF18481838FEF739FF00BFBB
:1024000015481838FEF7E0FF0028F9D14FF080603A
:1024100000901248019002954020039004940020FF
:1024200005904FF480600690002007900890099076
:102430004FF480300A9000200B900C900D900E907D
:10244000694605481838FFF73BF80021024818385C
:10245000FEF702FF10B070BD886402400C500140CE
:1024600021B1028842F04002028004E002884FF667
:10247000BF731A40028070471AB183880B43838070
:1024800002E083888B4383807047024600201389D3
:102490000B400BB1012000E0002070470146888905
:1024A00070478181704710B50022028802F44152C2
:1024B0000B884C8823438C882343CC8823430C8986
:1024C00023434C8923438C892343CC8923431A43D8
:1024D0000280838B4FF2FF74234083830B8A038235
:1024E00010BD000001461C48814201D20020704707
:1024F0001A48814201D20820F9E71948814201D2E5
:102500001020F4E71748814201D21820EFE716485F
:10251000814201D22020EAE71448814201D22820DA
:10252000E5E71348814201D23020E0E711488142BB
:1025300001D23820DBE71048814201D24020D6E7A3
:102540000E48814201D24820D1E70D48814201D294
:102550005020CCE75820CAE700400008008000085F
:1025600000C0000800000108000002080000040884
:10257000000006080000080800000A0800000C0817
:1025800000000E0830B503460C461546002206E052
:10259000184600F007F844F822001B1D521CAA42FE
:1025A000F6D330BD01460868704700002DE9F047BA
:1025B00004460E4617464FF009080025A946B4F117
:1025C000006F02D304F0030008B1BDE8F087FFF705
:1025D000C5F80020FFF710F8254604EB87091848D6
:1025E000854215D211E02846FFF7DCFF401C58B1A8
:1025F0002846FFF777FF82460221FFF70FF8804653
:10260000B8F1090F01D002E02D1D4D45EBD300BFFD
:10261000B8F1090F0CD108E020463168FFF776F8D1
:10262000092800D003E0241D361D4C45F4D300BF1B
:102630000120FEF7E1FFFFF75FF800BFC5E70000EC
:102640000000FF1F30B500228B071C0F0F2303FA79
:1026500004F20B4B8C1053F824309343084C8D102C
:1026600044F8253023468C1053F824308C07240F6F
:1026700000FA04F42343024C8D1044F8253030BD99
:10268000083801400CB500200190009041480068D6
:1026900040F480303F49086000BF3E48006800F4C5
:1026A000003000900198401C0190009818B90198E2
:1026B000B0F5A04FF1D13748006800F4003010B1F8
:1026C0000120009001E0002000900098012860D1D6
:1026D00030484030006840F080502E49403108605A
:1026E0002D48006840F440402B49086029480830D4
:1026F00000682849083108600846006840F4004036
:1027000008600846006840F4A05008602348091F8C
:102710000860081F006840F08070091F086000BF53
:102720001C48006800F000700028F9D01A480068C2
:1027300040F480301849086000BF1748406800F432
:1027400080300028F9D01448006840F40030124965
:10275000086000BF1048406800F400300028F9D03D
:1027600040F205700E4908600A480830006820F001
:1027700003000849083108600846006840F002007C
:10278000086000BF03480830006800F00C0008280B
:10279000F8D10CBD0038024000700040062D400802
:1027A000003C0240042808D14FF0E021096941F0C3
:1027B00004014FF0E022116107E04FF0E0210969C8
:1027C00021F004014FF0E0221161704710B5154867
:1027D000006840F47000134908601348006840F036
:1027E00001001149086000200F49083108600E48B7
:1027F00000680E4908400C4908600D48091D086032
:10280000081F006820F48020091F08600020064986
:102810000C310860FFF736FF4FF000600149803946
:10282000086010BD88ED00E000380240FFFFF6FEB2
:102830001030002400B58BB001210846FFF77AFB69
:1028400001211020FFF776FB01210846FFF7A2FBCC
:10285000012208213848FEF7ECFF01220E213748FB
:10286000FEF7E7FF4FF48070099002208DF82800F2
:1028700000208DF829008DF82A008DF82B0009A979
:102880002D48FEF78EFF4FF48040099009A92B4890
:10289000FEF787FF01210846FFF78CFB002101208E
:1028A000FFF788FB40F2CF700790B320ADF8180017
:1028B0000020ADF81A00ADF8200006A9204800F06D
:1028C00037FA6020ADF804000120ADF806000020C2
:1028D000ADF81000ADF808000820ADF81200400176
:1028E000ADF814000020ADF816004FF47A70039094
:1028F00001A9134800F026F901A9114800F0CAF90E
:1029000008210F4800F05CF908210D4800F0FEF99D
:1029100001210B4800F0CEF80121094800F0E8F849
:102920000121074800F0D8F84FF47A700449486351
:1029300008640BB000BD000000000240001002401F
:102940000000014030B58BB005460C460121022045
:10295000FFF7F0FA01210220FFF7FCFA022205211D
:102960002B48FEF766FF2020099002208DF82800F2
:1029700000208DF829008DF82A008DF82B0009A978
:102980002348FEF70EFF01210220FFF7F3FA002192
:102990000220FFF7EFFA681E0790601E80B2ADF8C4
:1029A00018000020ADF81A00ADF8200006A919485B
:1029B00000F0BEF96020ADF804000120ADF806007B
:1029C0000020ADF81000ADF808000820ADF81200A6
:1029D0004001ADF814000020ADF816004FF47A70F5
:1029E000039001A90B4800F0F5F80821094800F010
:1029F00043F90121074800F05DF80121054800F086
:102A000077F80121034800F067F80BB030BD0000F3
:102A100000040240000400401FB501211020FFF710
:102A200099FA36208DF8000001208DF80100002071
:102A30008DF8020001208DF803006846FFF734FA94
:102A40005920ADF804000020ADF80600ADF80C00E8
:102A50004FF47A70029001A9014800F069F91FBD96
:102A60000010004010B50121084800F050F858B19E
:102A70000121064800F02DF80121044800F026F855
:102A8000FFF788F800F0FEFF10BD000000100040C6
:102A900010B50121064800F01FF801221146044834
:102AA00000F046F80121024800F010F810BD0000C7
:102AB0000010004021B1028842F08002028004E050
:102AC00002884FF67F731A4002807047CA43028221
:102AD0007047CA430282704721B1028842F0010266
:102AE000028004E002884FF6FE731A4002807047AD
:102AF00031B1B0F8442042F40042A0F8442005E08F
:102B0000B0F84420C2F30E02A0F84420704730B55C
:102B10000246002000230024158A05EA0103958956
:102B200005EA010413B10CB1012000E0002030BD22
:102B30001AB183890B43838102E083898B438381AC
:102B40007047000070B5002400220023058C4FF66A
:102B5000FE7635400584028C8388048B4FF68F7592
:102B60002C40B51E2C400D882C43751E2A408D89A3
:102B70002A434D882A43104DA84202D00F4DA84247
:102B800013D14FF6F7752A40CD892A434FF6FB75CE
:102B90002A408D882A434FF6FF652B404FF6FF559C
:102BA0002B400D8A2B434D8A2B43838004838D68F1
:102BB0004563028470BD0000000001400004014034
:102BC0000A460021018B4FF6F77319401143018328
:102BD0007047000070B5002400220023058C4FF6DA
:102BE000EF7635400584028C8388048B48F6FF75A8
:102BF0002C404FF6FF452C400D884FF6FF7606EA35
:102C000005252C434FF6DF752A408D8906EA051508
:102C10002A434D8806EA05152A43154DA84202D0DD
:102C2000144DA8421DD14FF67F752A40CD894FF62D
:102C3000FF7606EA05152A434FF6BF752A408D88B0
:102C400006EA05152A434FF6FF352B404FF2FF7574
:102C50002B400D8A06EA85052B434D8A06EA850539
:102C60002B43838004838D688563028470BD0000DC
:102C700000000140000401400A460021018B4FF290
:102C8000FF7319404FF6FF7303EA022319430183D0
:102C90007047000070B5002200230024058C4EF61A
:102CA000FF7635400584038C8488828B48F6FF7557
:102CB0002A404FF6FF452A400D884FF6FF7606EA78
:102CC00005252A434DF6FF752B408D8906EA05350B
:102CD0002B434D8806EA05352B430A4DA84202D006
:102CE000094DA84208D14BF6FF752C400D8A4FF6CE
:102CF000FF7606EA85152C43848082838D680564FF
:102D0000038470BD00000140000401400A46002118
:102D1000818B4FF2FF7319404FF6FF7303EA0223D2
:102D20001943818370474163704781637047000096
:102D300000220288184B98420ED0184B98420BD0B4
:102D4000B0F1804F08D0164B984205D0154B9842F1
:102D500002D0154B984204D14FF68F731A404B881E
:102D60001A43124B984207D0114B984204D04FF6A9
:102D7000FF431A400B891A4302804B68C3620B88D9
:102D80000385054B984202D0044B984201D18B7ABF
:102D90000386012383827047000001400004014044
:102DA0000004004000080040000C004000100040FB
:102DB0000014004010B540F225511D4800F0CCF839
:102DC00010B31B4800F05CF9C4B21A48008800F444
:102DD0000040C8B91748008800F4804060B10A2C50
:102DE00003D000201349088020E01248008840F4F6
:102DF00000401049088019E00D2C06D10D480088CC
:102E000040F480400B49088010E00A480088C0F375
:102E10000D0009490C5407480088401C05490880EA
:102E200008460088C72801DD0020088010BD00008A
:102E30000010014018000020D000002021B182893C
:102E400042F40052828104E082894DF6FF731A40F9
:102E5000828170471AB1838A0B43838202E0838A9E
:102E60008B4383827047000010B504463248844289
:102E700008D101211020FFF79DF800211020FFF755
:102E800099F857E02D48844209D101214804FFF701
:102E900071F800214FF40030FFF76CF84AE0284841
:102EA000844209D101218804FFF764F800214FF41E
:102EB0008020FFF75FF83DE02248844209D10121DC
:102EC000C804FFF757F800214FF40020FFF752F82D
:102ED00030E01D48844209D101210805FFF74AF876
:102EE00000214FF48010FFF745F823E01748844293
:102EF00008D101212020FFF75DF800212020FFF7F5
:102F000059F817E01248844209D101218807FFF7D8
:102F100031F800214FF08040FFF72CF80AE00D480F
:102F2000844207D101214005FFF724F80021600504
:102F3000FFF720F810BD00000010014000440040E1
:102F400000480040004C0040005000400014014088
:102F500000780040007C004070B502460024002349
:102F60000025002040F66A16B14200D100BFC1F32F
:102F7000421501F01F03012606FA03F3012D02D1C9
:102F80009689334006E0022D02D1168A334001E0D3
:102F9000968A33400C12012606FA04F4168834404F
:102FA00013B10CB1012000E0002070BD2DE9FF47F6
:102FB00005460E460024A14600BFA046B08900B1D8
:102FC00000BF2C8A24F44054F08804432C82AC893E
:102FD00041F20C608443B088318908437189084309
:102FE0000443AC81AC8A24F44074B0890443AC82BD
:102FF0006846FEF7EFFF2048854202D01F48854211
:1030000002D1DDF80C9001E0DDF80890A88900F409
:10301000004040B109EBC90000EB091031684900DC
:10302000B0FBF1F707E009EBC90000EB09103168CC
:103030008900B0FBF1F76420B7FBF0F00401200930
:10304000642101FB1078A88900F4004040B13220CF
:1030500000EBC800B0FBF1F000F00700044308E00B
:10306000322000EB08106421B0FBF1F000F00F00FB
:1030700004432C81BDE8FF8700100140001401408B
:1030800001468888C0F30800704700BFFEE7410092
:10309000080218BF04200A0E18BF40F001004FF0CC
:1030A0007F4232EA010108BF40F00200012808BF58
:1030B0000520704710B54FF00E402DED028BB0EE9D
:1030C000408A18EE104A00EB4400B0F1506F4AD825
:1030D0004FF0FC40B0EB440F22D2B0EEC80AF7EE3E
:1030E000000A30EEC00AF6EE000A60EE208A18EE02
:1030F000900A01F0E9FE01EE100A14F0004F1DBF26
:10310000DFED2D0A9FED2D0AB1EE411ADFED2C0AFD
:1031100008BF9FED2C0AF8EE001A21EE218A05E087
:10312000DFED290A68EE088AB0EE600A9FED271AE3
:10313000DFED271A30EE080A48EE811A9FED251AB6
:1031400008EEA11ADFED241A48EE811A9FED231A2A
:1031500008EEA11A68EE281ABDEC028B01EE810A76
:1031600030EE200A10BD4FF0E440B0EB440F0CD914
:1031700018EE100AFFF78BFF042808BF00F070F963
:10318000B0EE480ABDEC028B10BD4FF07F40B0EBB3
:10319000440F07D2B0EE480ABDEC028BBDE81040E8
:1031A00000F050B90120FDF71EF9BDEC028BBDE81F
:1031B000104000F04DB900000000C9BF22AAFDB9BF
:1031C0000000C93F22AAFD390000000024FE1C3D7A
:1031D000C78AD83C1E67383D1B93993DAFAA2A3E4B
:1031E00010EE100A10B510EE901A4FF0684202EB84
:1031F00040032DED028BB3F1654F3CBF02EB410262
:10320000B2F1654F7CD200BFC0F3C753C1F3C752C0
:103210009A1A1B2A09DD10F0004F14BF9FED6E0AA9
:103220009FED6E0ABDEC028B10BD12F11A0F1BDA76
:1032300011F0004F09D010F0004F0CBF9FED680A4D
:103240009FED680ABDEC028B10BD80EE208A18EE5F
:10325000100AFFF71CFF042808BF00F001F9B0EEC8
:10326000480ABDEC028B10BD4200B2EB410F37D9CA
:1032700010F0004F19BFDFED5C1A9FED5C1ADFED17
:103280005C1A9FED5C1AB0EE602A0A46F1EE400A25
:1032900080F00041B0EE420A10460A1A5200B2F124
:1032A000807F34D2484010F0004FDFED532A9FED6D
:1032B000533A1DBFBEEE002A71EEE21A31EE431AF8
:1032C000B6EE002A04BF71EEA21A31EE031AF0EE38
:1032D000402A42EE602A40EE020A82EEA02A18E05E
:1032E00011F0004F04BF9FED461AF0EE411AD4D002
:1032F00010F0004F1CBFDFED431A9FED431A00E0B2
:1033000026E004BFDFED411A9FED411AC5E780EECC
:10331000202A22EE020ADFED3F0ADFED3F2ABDEC54
:10332000028B40EE202ADFED3D0A40EE220ADFED5F
:103330003C2A40EE202ADFED3B0A40EE220A22EE34
:10334000000A00EE201A31EE020A30EE210A10BD0A
:103350004FF07F42B2EB400F28BFB2EB410F05D2D6
:10336000BDEC028BBDE8104000F06FB840EA0103ED
:103370005B0008BF41F0FF410BD0B2EB400F08BF2C
:10338000B2EB410F08D120F0804000EE100A21F08E
:10339000804100EE901A37E7B2EB400F12BF5FEAB0
:1033A000410240F0FF4001F000413FF42DAF4A00E0
:1033B00092EA40033FF528AF002AACBF9FED1A1AEE
:1033C0009FED1A1A20EE010A60EE810A10EE100A33
:1033D00010EE901A18E70000DB0FC9BFDB0FC93FE2
:1033E000DB0F4940DB0F49C00000C9BF22AAFDB96D
:1033F0000000C93F22AAFD390060ED3EC30ACE3766
:1034000000000000000049C022AA7DBA0000494027
:1034100022AA7D3A2DAD65BD8FB8D53D0FB511BE41
:1034200061C84C3EA8AAAABE0000804F0000802FB1
:103430002DED020B019820F0004001909DED000B56
:1034400002B0704730EE000A704730EE200A704735
:10345000DFED020A80EEA00A7047000000000000C5
:103460009FED020A20EE000A7047000000000010E5
:1034700000BF70477047000070B52DED028B8AB019
:1034800005460C4616460DB104B11EB90AB0BDEC96
:10349000028B70BD94ED000AB5EEC00AF1EE10FA91
:1034A0000DD194ED010AB5EEC00AF1EE10FA06D185
:1034B00094ED020AB5EEC00AF1EE10FA7DD09FED50
:1034C000600AB0EE408A00200790089009900490AE
:1034D000059006905B4A07CA01AB07C395ED010A48
:1034E000D5ED030A20EE200AD5ED000A95ED021A6B
:1034F00000EEC10AF0EE000A20EE200A8DED070A68
:1035000095ED000AD5ED010A20EE200AD5ED020A5C
:1035100095ED031A00EE810AF0EE000A20EE200A73
:103520008DED080A95ED000A20EE000AD5ED030A9C
:1035300095ED031A00EE810AF7EE000AB0EE001ACC
:1035400051EE000ACDED090A01AB2246314628466C
:1035500000F07AF8D4ED000A60EEA00A94ED011AAA
:10356000D4ED011A41EE210A94ED021AD4ED021AAB
:1035700041EE210AB0EE600AFDF76AFAB0EE408A29
:1035800094ED000A20EE080A84ED000A94ED010A89
:1035900020EE080A84ED010A94ED020A20EE080AE2
:1035A00084ED020A94ED010ADDED090A20EE200AFD
:1035B000D4ED020A9DED081A00E03EE000EEC10ADB
:1035C0008DED040A94ED020ADDED070A20EE200AD3
:1035D000D4ED000A9DED091A00EEC10A8DED050A31
:1035E00094ED000ADDED080A20EE200AD4ED010A70
:1035F0009DED071A00EEC10A8DED060A96ED000A50
:10360000DDED010A9DED041A00EE810A86ED000A47
:1036100096ED010ADDED020A9DED051A00EE810A24
:1036200086ED010A96ED020ADDED030A9DED061A0C
:1036300000EE810A86ED020A00BF00BF26E7000007
:1036400000000000945C00082DE9F0412DED048B92
:1036500007460D4614461E469FED580AB0EE409AA6
:103660009FED560AB0EE408A9FED540AF0EE408A74
:10367000D4ED000A60EEA00A94ED011AD4ED011A0F
:1036800041EE210A94ED021AD4ED021A41EE210A0C
:10369000B0EE600AFDF7DCF9F7EE000A80EE801A62
:1036A000B0EE419AD5ED000AB0EE600AFDF76AF877
:1036B000F0EE409AD5ED010AB0EE600AFDF762F82F
:1036C00079EE809AD5ED020AB0EE600AFDF75AF85D
:1036D00039EE800AF0EE408A3948D0ED000A79EEE2
:1036E000600AB0EE600AFDF74DF8B0EE408A9FED3B
:1036F000350AB4EEC08AF1EE10FA06DC9FED320A0C
:10370000F4EEC08AF1EE10FA53DD9FED2C2AB0EEF4
:10371000420A9FED2A2AF0EE421AB7EE002AF0EE96
:10372000420A9FED262AB0EE421AB5EEC08AF1EEAB
:1037300010FA05DD9FED232AC2EE082AB0EE620AD8
:103740009FED222AB4EEC20AF1EE10FA03D29FEDE9
:103750001B2AB0EE420AF5EEC08AF1EE10FA05DD42
:103760009FED192AC2EE282AF0EE621AB7EE002A5F
:10377000B4EEC20AF1EE10FA03D220EE802AF0EE87
:10378000420AB7EE002AF4EEC21AF1EE10FA03D2A2
:1037900020EEA12AF0EE420A9FED0D2A20EE822AA9
:1037A000B0EE421A86ED001A86ED011A86ED021A75
:1037B00000BFBDEC048BBDE8F081000000000000FC
:1037C000CC000020CDCCCC3D8FC2F53D9A99993EDE
:1037D000CDCC4C3E10B52DED048B86B00446B0EE3A
:1037E000408AF0EE608AB0EE419A00200390049087
:1037F0000590009001900290B0EE000AC8EE000A19
:10380000F0EE609AB0EE690AFCF7B0FF8DED030AA6
:10381000B0EE000AC8EE800AF0EE609AB0EE690AD7
:10382000FCF7A4FF8DED040AB0EE000AC9EE000A11
:10383000F0EE609AB0EE690AFCF798FF8DED050A8C
:10384000B0EE000AC8EE000AF0EE609AB0EE690A27
:10385000FDF71CF98DED000AB0EE000AC8EE800AF3
:10386000F0EE609AB0EE690AFDF710F98DED010AED
:10387000B0EE000AC9EE000AF0EE609AB0EE690AF6
:10388000FDF704F98DED020A9DED050ADDED040A50
:1038900020EE200ADDED030A20EE200ADDED020A0B
:1038A0009DED011A60EE810A9DED001A00EE810A7D
:1038B00084ED000A9DED020ADDED040A20EE200AE7
:1038C000DDED030A20EE200ADDED050A9DED011A6B
:1038D00060EE810A9DED001A00EEC10A84ED010A36
:1038E0009DED050ADDED010A20EE200ADDED030A5B
:1038F00020EE200ADDED020A9DED041A60EE810A39
:103900009DED001A00EE810A84ED020A9DED050A84
:10391000DDED040A20EE200ADDED000A20EE200A8B
:10392000DDED020A9DED011A60EE810A9DED031A9C
:1039300000EEC10A84ED030A06B0BDEC048B10BD95
:1039400030B58BB005460C4601214020FEF702FB46
:1039500001218020FEF7EEFA01214020FEF70AFB4C
:1039600000214020FEF706FB092206212048FDF732
:1039700060FF4020099002208DF8280003208DF878
:10398000290000208DF82A0002208DF82B0009A9BB
:103990001748FDF706FF6020ADF804000120ADF8E0
:1039A00006000020ADF8100001A91248FFF7CAF880
:1039B00008211048FFF704F901210E48FFF77AF8B3
:1039C000681E0790601E80B2ADF818000020ADF8A8
:1039D0001A00ADF8200006A90648FFF7A9F9012151
:1039E0000448FFF779F800F007F80BB030BD00008D
:1039F000001C02400018004010B500210148FFF7EC
:103A000092F910BD0018004010B55F2004490880ED
:103A100042F2107102482838FFF785F910BD000006
:103A20002818004000B587B0134A01A904A8FEF782
:103A3000E5F91148008844F62061884218DD00202D
:103A40000D4908809DED010A0C4880ED000A9DEDAE
:103A5000020A80ED010A9DED030A80ED020A00F0E2
:103A600035FD00F00DFF01200549087007B000BDCD
:103A700000F010FF0020F9E7A40000202804002037
:103A8000BB00002010B50E480078012806D10D4873
:103A90000078012813D100F09FF810E00848007862
:103AA00002280CD108480078022802D1FFF7BAFF9B
:103AB00005E005480078012801D10149087010BDD2
:103AC000BA000020BC000020BB00002010B5044656
:103AD0006FF00400FEF766FEE11704EB5171C1F3CD
:103AE000C701074A11701046007800EB4001C1EB96
:103AF000C0104FF6FF7101EAC0000249088010BDF6
:103B0000100000201200002070B504464FF407702A
:103B100094FBF0F0C6B24FF4077094FBF0F100FB99
:103B2000114085B205E04FF4077000F02FF8701EC9
:103B3000C6B2002EF7D115B1284600F027F870BDA7
:103B40000146114A12784A434FF0E0235A6100229D
:103B50009A611A46126942F001021A6100BF4FF0E1
:103B6000E022106900F001021AB100F48032002A4C
:103B7000F5D04FF0E022126922F001024FF0E0236D
:103B80001A6100229A617047100000200146114A14
:103B900012884A434FF0E0235A6100229A611A4684
:103BA000126942F001021A6100BF4FF0E022106971
:103BB00000F001021AB100F48032002AF5D04FF073
:103BC000E022126922F001024FF0E0231A61002284
:103BD0009A6170471200002010B52DED048BFE484D
:103BE000007A01285DD1FD48007801284BD10221DF
:103BF000FB48FDF741FE0421FA48FDF73DFE402158
:103C0000F948FDF73BFEBBEE0E0AF84880ED010ACD
:103C100090ED010AF648D0ED060A30EE600A10EE8B
:103C2000101A084601F018FE41EC190BB0EE490AD3
:103C3000F0EE690AFFF7FCFBB0EE408AF0EE608A16
:103C40009FEDEC0B53EC102B51EC180B01F056FBD5
:103C500006D8E6480089401CE4490881FFF7D4FEF5
:103C6000E248008941F2883188420BDBFFF7C4FE4D
:103C70004021DD48FDF700FE0220D84908700020F1
:103C8000DA49088122E3D54800780228FAD10221D6
:103C9000D348FDF7F3FD9FEDD90AD44880ED010A22
:103CA00014E3CD48007A0328ECD1CB48407A0328AE
:103CB0007ED0D348007801284BD10221C848FDF7B7
:103CC000DBFD0421C748FDF7D7FD4021C648FDF7BD
:103CD000D5FDBBEE0E0AC54880ED010A90ED010A44
:103CE000C348D0ED060A30EE600A10EE101A0846FE
:103CF00001F0B2FD41EC190BB0EE490AF0EE690A91
:103D0000FFF796FBB0EE408AF0EE608A9FEDB90BAC
:103D100053EC102B51EC180B01F0F0FA06D8FFF71A
:103D200073FEB2484089401CB0494881AF48408981
:103D300040F6B8318842A5DBFFF75EFE4021AA4875
:103D4000FDF79AFD0220AE4908700020A74948817E
:103D5000BCE2AB48007802284ED10221A048FDF712
:103D60008BFD04219F48FDF787FDB3EE080A9F48AD
:103D700080ED010A20219C48FDF780FD9B4890EDD5
:103D8000010A9B48D0ED060A30EE600A10EE101AC8
:103D9000084601F061FD41EC190BB0EE490AF0EE66
:103DA000690AFFF745FBB0EE408AF0EE608A00E05A
:103DB000D2E09FED900B53EC102B51EC180B01F05F
:103DC0009DFA06D8FFF720FE88484089401C8749A5
:103DD00048818648408940F6B8318842B8DBFFF711
:103DE0000BFE20218048FDF747FD03208449087021
:103DF00000207E49488169E28148007803284CD13F
:103E000002217748FDF738FD04217648FDF734FD9F
:103E1000BBEE0E0A754880ED010A40217248FDF79D
:103E20002DFD724890ED010A7148D0ED060A30EE82
:103E3000600A10EE101A084601F00EFD41EC190B55
:103E4000B0EE490AF0EE690AFFF7F2FAB0EE408AE6
:103E5000F0EE608A9FED670B53EC102B51EC180BC2
:103E600001F04CFA06D8FFF7CFFD60484089401CAE
:103E70005E4948815D48408940F6B8318842BADBE6
:103E8000FFF7BAFD40215848FDF7F6FC04205C49D5
:103E9000087000205549488118E2594800780428E4
:103EA0004CD102214E48FDF7E7FC04214D48FDF7B7
:103EB000E3FCB3EE080A4D4880ED010A20214A4890
:103EC000FDF7DCFC494890ED010A4948D0ED060AAF
:103ED00030EE600A10EE101A084601F0BDFC41EC0D
:103EE000190BB0EE490AF0EE690AFFF7A1FAB0EE3D
:103EF000408AF0EE608A9FED3F0B53EC102B51ECA3
:103F0000180B01F0FBF906D8FFF77EFD3748408912
:103F1000401C364948813548408940F6B8318842CE
:103F2000BADBFFF769FD20212F48FDF7A5FC05202E
:103F30003349087000202D494881C7E13048007896
:103F40000528A9D104212748FDF798FC9FED2D0AEB
:103F5000264880ED010AB9E129480078012864D19A
:103F600002211F48FDF788FC04211E48FDF784FC50
:103F700040211D48FDF782FCBBEE0E0A1B4880ED78
:103F8000010A90ED010A1A48D0ED060A30EE600AE7
:103F900010EE101A084601F05FFC41EC190BB0EE70
:103FA000490AF0EE690AFFF743FAB0EE408AF0EEF4
:103FB000608A9FED100B53EC102B51EC180B01F0A5
:103FC0009DF906D8FFF720FD08484089401C0749A5
:103FD00048810648408917E00A040020B800002004
:103FE0000014024000080240001002405804002063
:103FF000BC04002000000000000014400000344217
:10400000B9000020713D4AC240F6B831884294DBC5
:10401000FFF7F2FC4021FC48FDF72EFC0220FB4993
:1040200008700020FA49488150E1F84800780228D9
:104030004CD10221F748FDF71FFC0421F648FDF79B
:104040001BFCB3EE080AF24880ED010A2021EE487D
:10405000FDF714FCEE4890ED010AF048D0ED060A99
:1040600030EE600A10EE101A084601F0F5FB41EC44
:10407000190BB0EE490AF0EE690AFFF7D9F9B0EE74
:10408000408AF0EE608A1FED250B53EC102B51ECAB
:10409000180B01F033F906D8FFF7B6FCDC4840896D
:1040A000401CDB494881DA48408940F6B8318842F3
:1040B000BADBFFF7A1FC2021D348FDF7DDFB03208D
:1040C000D24908700020D2494881FFE0CF480078EB
:1040D00003284CD10221CF48FDF7CEFB0421CE4866
:1040E000FDF7CAFBBBEE0E0AC94880ED010A40216C
:1040F000C548FDF7C3FBC64890ED010AC748D0ED9F
:10410000060A30EE600A10EE101A084601F0A4FB11
:1041100041EC190BB0EE490AF0EE690AFFF788F995
:10412000B0EE408AF0EE608A1FED4E0B53EC102B80
:1041300051EC180B01F0E2F806D8FFF765FCB44823
:104140004089401CB2494881B148408940F6B831A5
:104150008842BADBFFF750FC4021AB48FDF78CFBEF
:104160000420AA4908700020A9494881AEE0A74868
:10417000007804284CD10221A648FDF77DFB0421DC
:10418000A548FDF779FBB3EE080AA14880ED010AC6
:1041900020219D48FDF772FB9D4890ED010A9F4844
:1041A000D0ED060A30EE600A10EE101A084601F053
:1041B00053FB41EC190BB0EE490AF0EE690AFFF728
:1041C00037F9B0EE408AF0EE608A1FED760B53ECC3
:1041D000102B51EC180B01F091F806D8FFF714FCE6
:1041E0008B484089401C8A4948818948408940F66B
:1041F000B83188426ADBFFF7FFFB20218248FDF7D8
:104200003BFB0520814908700020814948815DE021
:104210007E48007805284CD102217E48FDF72CFB12
:1042200004217D48FDF728FBBBEE0E0A784880ED9F
:10423000010A40217448FDF721FB754890ED010A01
:104240007648D0ED060A30EE600A10EE101A0846E5
:1042500001F002FB41EC190BB0EE490AF0EE690ADD
:10426000FFF7E6F8B0EE408AF0EE608A1FED9F0B94
:1042700053EC102B51EC180B01F040F806D8FFF767
:10428000C3FB63484089401C6149488160484089BC
:1042900040F6B831884219DBFFF7AEFB40215A489F
:1042A000FDF7EAFA0620594908700020584948816C
:1042B0000CE056480078062808D104215648FDF73E
:1042C000DDFA1FEDB00A524880ED010A5448007A29
:1042D00002287DD05248407A032821D04F4890EDE3
:1042E000061AF0EE410A4A4890ED011AB0EE410A72
:1042F0004C48FCF715FD464880ED000A474890ED14
:10430000081AF0EE410A424890ED001AB0EE410A58
:1043100044484C30FCF704FD434880ED000A21E09E
:104320003E4890ED061AF0EE410A394890ED011A28
:10433000B0EE410A3B489830FCF7F2FC344880ED7F
:10434000000A364890ED081AF0EE410A304890ED28
:10435000001AB0EE410A3348E430FCF7E1FC324881
:1043600080ED000A304890ED000A10EE101A084661
:1043700001F072FA41EC190BB0EE490AF0EE690A4D
:10438000FFF756F8B0EE408AF0EE608A51EC180B59
:1043900000F038FE24494860084690ED010AB5EE69
:1043A000C00AF1EE10FA02DD90ED010A01E09FED86
:1043B0001F0A1D4880ED010A90ED010ADFED1C0A7D
:1043C000B4EEE00AF1EE10FA03D290ED010A02E039
:1043D00050E09FED170A144880ED010A90ED000AA5
:1043E000B5EEC00AF1EE10FA26DD90ED010ABDEE41
:1043F000C00A10EE100A00B200F24C400D494863AA
:1044000040F24C4008644FE000100240B900002028
:10441000580400200014024000080240BC040020A0
:104420000A04002074020020B000002000000000F8
:1044300000006144000001401D4890ED000AB5EE07
:10444000C00AF1EE10FA0FD240F24C40194948630D
:10445000174890ED010ABDEEC00A10EE100A00B236
:1044600000F24C4008641FE040F24C4011494863A0
:10447000086419E04FF47A700E4948630864042117
:104480000D48FDF7F9F940210C48FDF7F5F9202119
:104490000A48FDF7F1F902210948FDF7EDF901207D
:1044A0000849087008490870BDEC048B10BD000075
:1044B000B00000200000014000080240001002404F
:1044C00000140240B8000020B900002010B50622F8
:1044D00002490348FEF76AF810BD000028040020D6
:1044E0000400010810B5044632210B48FCF74BF8D4
:1044F00001231A4621460848FCF7A4F80648FCF7B1
:10450000FDF800BF02210448FCF768F80028F9D044
:104510000148FCF75FF810BD002001402DE9F04193
:1045200004460D4616461F4614B10DB106B10FB92B
:10453000BDE8F081D4ED010A94ED031A60EE810A22
:1045400094ED001AD4ED021A41EE610AB8EE001A99
:1045500060EE810AB0EE600AFCF7ECF886ED000A26
:1045600094ED001A21EE011AD4ED011A94ED012AFE
:1045700001EE821AF7EE001AB0EE002A52EE011A8E
:10458000F0EE610A94ED001AD4ED031A21EE211A1F
:10459000D4ED011A94ED022A01EE821AF0EE001A0F
:1045A00021EE211AB0EE410AFCF7D0F885ED000AA1
:1045B00094ED001A21EE011AD4ED031A94ED032AAA
:1045C00001EE821AF7EE001AB0EE002A52EE011A3E
:1045D000F0EE610A94ED001AD4ED011A21EE211AD1
:1045E000D4ED021A94ED032A01EE821AF0EE001ABD
:1045F00021EE211AB0EE410AFCF7A8F887ED000A77
:1046000000BF95E710B500F04BF8BDEEC00A10EE04
:10461000100A40B20A3000EE100AB8EEC00A1E4876
:1046200080ED000AD0ED000A90ED020ABDEEC00A4E
:1046300010EE100A40B200EE100AB8EEC00AF4EE16
:10464000C00AF1EE10FA0EDD134890ED020ABDEE3D
:10465000C00A10EE100A40B200EE100AB8EEC00A0E
:104660000D4880ED000A0C4890ED000AB5EEC00A36
:10467000F1EE10FA03D29FED090A80ED000A064818
:1046800090ED000ABDEEC00A10EE100A40B208B963
:10469000002010BD0120FCE71C00002000000000ED
:1046A00010B52DED028B002008EE900A00F02CFCD6
:1046B0001220FFF717FF08EE900AB8EE680ADFED48
:1046C0000C0A20EE200AB0EE408A9FED0A0A38EE6E
:1046D000400ADFED090A80EE201AB3EE090A31EE36
:1046E000000AB0EE408AB0EE480ABDEC028B10BD65
:1046F0003333533A5C8F423F0AD7233B10B508B19E
:1047000001B103B910BD02F0020414B100241C80F1
:10471000F8E702F0010404B390ED000AD1ED000ABD
:104720009FED0F1A01EE600A80ED000A90ED010A7C
:10473000D1ED010A9FED0A1A01EE600A80ED010A2F
:1047400090ED020AD1ED020A9FED051A01EE600A12
:1047500080ED020A1C88641C1C8000BFD2E70000A8
:1047600052499D391CB501217020FDF7E3FB4FF440
:104770008040009001208DF8040000208DF8060094
:1047800003208DF8050001208DF8070069460748D1
:10479000FDF707F84FF40060009069460448FDF704
:1047A00000F800F007F800F06BF81CBD00140240A0
:1047B0000010024010B54FF480410248FDF75EF84A
:1047C00010BD00000014024010B54FF480410248B3
:1047D000FDF752F810BD0000001402401CB5012185
:1047E0003420FDF7A7FB0220009001208DF8040083
:1047F00000208DF8060003208DF8050001208DF8BB
:10480000070069461B48FCF7CCFF602000900120A0
:104810008DF8040000208DF8060003208DF80500B7
:1048200001208DF8070069461348FCF7BAFF042001
:10483000009001208DF8040000208DF80600032070
:104840008DF8050001208DF8070069460B48FCF73C
:10485000A8FF04210948FDF70FF840210648FDF79D
:104860000BF820210448FDF707F802210148FDF765
:1048700003F81CBD00140240001002400008024072
:1048800010B54FF400610248FCF7F8FF10BD0000BE
:104890000010024010B54FF400610248FCF7ECFF35
:1048A00010BD0000001002404FF4A060FDF738FB7F
:1048B000B420FFF70BF9FCF7F3F9FDF7D9F800BFC7
:1048C000FEE700001CB501212020FDF733FB40204E
:1048D000009001208DF8040000208DF806000120D2
:1048E0008DF8070003208DF8050069460148FCF7A4
:1048F00058FF1CBD0014024010B540210148FCF7D0
:10490000BDFF10BD0014024010B540210148FCF766
:10491000B3FF10BD0014024070B50546002405E049
:10492000601CC4B2C82C01DD002070BD02210E48FD
:10493000FDF7ABFD0028F3D029460B48FDF7B1FD8C
:10494000002405E0601CC4B2C82C01DD0020ECE7A7
:1049500001210548FDF799FD0028F3D00248FDF735
:104960009DFDC0B2E1E700000050014010B5FDF729
:1049700049FC10BD2DE9F041002596263227002480
:10498000FFF7A0FFFFF7F2FF752000F001F93046B6
:1049900000F058F8752000F0FBF8304600F052F8AF
:1049A00080216B2000F004F9384600F045F87520AE
:1049B00000F0EEF8304600F045F8752000F0E8F819
:1049C000304600F03FF8752000F0E2F8054630462A
:1049D00000F038F8702D02D08020BDE8F08100246E
:1049E00024E004EB4402134B1A44517804EB4402D4
:1049F000985C00F0DDF8304600F024F804EB440148
:104A00000C4A505C00F0C4F80546304600F01AF835
:104A100004EB4400074908444078A84204D004EB62
:104A2000440008448078D8E7601CC4B20E2CD8DB60
:104A30000020D2E7445C000810B504462046FFF78A
:104A400063F810BD10B504462046FFF779F810BD95
:104A500000B101B97047027802F040021AB10A7839
:104A600042F002020A700A7802F0020272B1444A6D
:104A70001278521C424B1A701A4612780A2A05DD27
:104A800000221A700A7822F002020A70027802F0FC
:104A90000102002A72D0002200EE102A0A7842F0A9
:104AA00001020A704278120212B283781A4300EEB1
:104AB000102AF8EEC00A9FED331A60EE810AC1EDAC
:104AC000010AC278120212B203791A4300EE102AC8
:104AD000F8EEC00A9FED2B1A60EE810AC1ED020AC2
:104AE0004279120212B283791A4300EE102AF8EECC
:104AF000C00A9FED241A60EE810AC1ED030AC27953
:104B0000120212B2037A1A4300EE102AB8EEC01A4B
:104B1000DFED1D1AF3EE070A41EE210AC1ED040A8A
:104B2000427A120212B2837A1A4300EE102AF8EE89
:104B3000C00A9FED161A60EE810AC1ED050AC27A1D
:104B4000120212B2037B1A4300EE102AF8EEC00ADA
:104B50009FED0E1A60EE810AC1ED060A427B120239
:104B600012B2837B1A4300EE102AF8EEC00A9FEDC2
:104B7000071A60EE810AC1ED070A00BF00BF69E7AE
:104B80001A000020CDCC1C3A6F12033B58A00B3A00
:104B900070B50446FFF7B8FE44F08000FFF7BCFE96
:104BA000FF20FFF7B9FE0546FFF7A6FE284670BDB9
:104BB00070B505460C46FFF7A7FE2846FFF7ACFE8A
:104BC0002046FFF7A9FEFFF797FE70BDB0EE401A32
:104BD00090ED0F0A80ED100A90ED0E0A80ED0F0A9D
:104BE000C0ED050A80ED061A30EEC10A80ED0E0A0E
:104BF00090ED0E0AD0ED0F1A30EE610AD0ED001ADA
:104C000020EE210A80ED080A90ED010AD0ED0E1A7F
:104C100020EE210A80ED090A90ED0C0A80ED0D0AC4
:104C200090ED0B0A80ED0C0A90ED0E0AD0ED0F1AF4
:104C3000B0EE002A02EE610AD0ED101A30EE210A21
:104C400080ED0B0A90ED020AD0ED0B1A20EE210A3E
:104C500080ED0A0A90ED080AD0ED091A30EE210A1B
:104C6000D0ED0A1A30EE210AD0ED071A30EE210AF3
:104C700080ED070A90ED070AD0ED031AB4EEE10AC1
:104C8000F1EE10FA02DD90ED030A01E090ED070A63
:104C900080ED070A90ED070AD0ED031AF1EE611AD4
:104CA000B4EEE10AF1EE10FA04D290ED030AB1EE8F
:104CB000400A01E090ED070A80ED070A90ED070A2F
:104CC0007047000091ED001A80ED001A91ED011A75
:104CD00080ED011A91ED021A80ED021A80ED030AAF
:104CE000C0ED040A9FED0C1A80ED0D1A80ED0C1A30
:104CF00080ED0B1A9FED081A80ED071A80ED0A1A55
:104D000080ED091A80ED081A80ED101A80ED0F1A57
:104D100080ED0E1A704700000000000010B52DED68
:104D2000088B0446B0EE408AF0EE608AB0EE419AFD
:104D3000F0EE619AB0EE42AAF0EE62AAB0EE43BA8B
:104D400084ED008AC4ED018A84ED029AC4ED069ACE
:104D500084ED07AAC4ED08AA84ED09BA0B48A06443
:104D60002046A16C88479FED0A0A84ED0D0A9FED4D
:104D7000080A84ED0E0A9FED060A84ED0F0A9FEDE6
:104D8000040A84ED100ABDEC088B10BD954D000897
:104D9000000000009FED080A80ED030A9FED060A5F
:104DA00080ED040A9FED040A80ED050A9FED020ADA
:104DB00080ED0C0A70470000000000001CB50121C6
:104DC0008020FDF7B7F83C20009001208DF804000A
:104DD00000208DF8060003208DF8050001208DF8D5
:104DE000070069460648FCF7DCFC002404E0204686
:104DF00000F008F8601CC4B2042CF8DB1CBD0000F5
:104E0000001C024010B50446032C00DD10BD042038
:104E1000A04081B20248FCF72FFD00BFF6E700007A
:104E2000001C024010B50446032C00DD10BD042018
:104E3000A04081B20248FCF721FD00BFF6E7000068
:104E4000001C024010B52DED028B04469FED1D0A9B
:104E5000B0EE408AD4ED000A60EEA00A94ED011A8B
:104E6000D4ED011A41EE210A94ED021AD4ED021A92
:104E700041EE210A94ED031AD4ED031A41EE210A02
:104E8000B0EE600AFBF7E4FDB0EE408A94ED000A54
:104E900020EE080A84ED000A94ED010A20EE080ACB
:104EA00084ED010A94ED020A20EE080A84ED020A5C
:104EB00094ED030A20EE080A84ED030ABDEC028B90
:104EC00010BD00000000000010B500EE100A2DED2E
:104ED000028BB1EEC08A18EE100A20F00040C0F13B
:104EE000FF40C00F0AD010EE100A20F00040C0F1C1
:104EF000FF40C00F04BF0120FBF775FA18EE100A3F
:104F0000BDEC028B10BD000000B587B00020019001
:104F10008DF808008DF809000390059001208DF8A8
:104F2000180001A90248FBF763FB07B000BD0000B1
:104F3000002001401FB501210802FDF72BF80121D7
:104F40000802FDF737F800214FF48070FDF732F8C2
:104F50000120FBF7D9FB00200090039002904FF452
:104F6000803001906846FBF71DFBFFF7CDFF012362
:104F70001A4612210348FBF765FB01210148FBF7A4
:104F800005FB1FBD0020014091ED000AB1EE400A73
:104F900080ED010A91ED010AB1EE400A80ED020AAE
:104FA00091ED020AB1EE400A80ED030A91ED000A8C
:104FB00080ED040A91ED020A80ED060A91ED010AE6
:104FC000B1EE400A80ED070A91ED010A80ED080A72
:104FD00091ED020AB1EE400A80ED090A91ED000A56
:104FE00080ED0B0A91ED020A80ED0C0A91ED010AA9
:104FF00080ED0D0A91ED000AB1EE400A80ED0E0A37
:105000007047000021F00042A2F16052B2F5801F0B
:1050100001F0004328BFD2F17E6C51D9F1EE10CAE5
:105020001CF4400F14D15FEAC00C43EAC20202EB49
:10503000507008BF70475FEA4C0C40F10000DFF889
:1050400080C240F0138328BF20F0010000F00EBBA7
:10505000C30001F0004343EAC20202EB507008BFF4
:1050600070471B4248BF4FEA4C0C1CF4000F08BFAE
:10507000401CDFF84CC200F0F9BAC30001F0004355
:1050800043EAC20202EB507204BF104670471B4253
:1050900048BF4FEA4C0C1CF4000FDFF824C218BFC5
:1050A000104640F0E38208BF521C12F4000F08BF04
:1050B000104600F0DB8221F0004201F0004330E0B6
:1050C00050EA410C04BF084670475FEA125CBCF12D
:1050D000FE0F1ED1F1EE10CA1CF4400FCDD15FEAD5
:1050E000C00C9BD05FEA001C4FEAC20C4CEB507C1A
:1050F00004BFC2002CEAD27C1CF4000F04BF4CEAAF
:105100000300DFF8BCC100F0B18221F00042A2F13F
:105110006052B2F5801F4FEA410C2ADB1CF5001FDC
:1051200016D2F1EE10CA1CF4806F06D02CF0005C91
:105130004CF0805CA1F140612AE04FF07F40DFF845
:1051400084C143EA500000F091BA084600F03FBC29
:1051500070B500F00FF900BF000000B9880000042E
:10516000FFF7F3BF21F0704243EA507040EAC200FB
:105170007047F1EE10CA2CF0805C4CF0005C1CF41F
:10518000006F25D04B00B3F5001F51D301F14061F2
:105190001CF4400F40F07E800CF0405CC3004CF0EB
:1051A000880C11D05CF0404C10F0805F0CD00346AE
:1051B00010F1005041F10001020108BF20F0005041
:1051C000834218BF2CF0004C00F0604000F0FBBCA4
:1051D0001CF4400F1AD01B4248BF4FEA4C0C1CF481
:1051E000000F13D112F1406248BF22F07F424FEA14
:1051F000C00CBCF1010F43EAC20242EB50704FF009
:10520000880228BF42F0804200F0E6BB12F1406203
:1052100048BF22F07F425FEAC00C43EAC20242EA82
:1052200050704FF0880218BF42F0404200F0D4BBEB
:1052300001F0004321F00041094214D0B1FA81FC91
:10524000ACF10B0CCCF1200201FA0CF120FA02F2C5
:1052500041EA02014FEA0C5200FA0CF0A1EB020104
:1052600081EA03010FE0B0FA80F200FA02F002F1E5
:1052700015024FEAD0214FEA0252A1EB02014FEA98
:10528000405081EA0301F1EE10CA2CF0805C4CF032
:10529000005C7BE762460CF0405CC3004CF0880C7D
:1052A00092D05CF0404C094248BF520012F4000F0B
:1052B0008AD110F1005041F100012CF0004C83D153
:1052C0008800004088000010491058BFC1F14041DB
:1052D0005B1058BFC3F140438B42EFF3008070472F
:1052E000B1FA81F201FA02F1C2F11D024FEA415016
:1052F00003EB025303EBD1217047000051EA030C8A
:1053000011D41CF5801F00F10680994218BF704728
:1053100008BF9042704711F5801F58BF13F5801FDA
:1053200018D4994270471CF5801F09D550EA410CEA
:105330000EBF52EA430C8B42704708BF824270474F
:105340004FF4001C1CEB410F38BF1CEB430F01D284
:105350008B42704770B500F00DF800BF0000003FB1
:1053600019001604FFF7B0BF4FF000514FF0805303
:10537000FFF7AABF0EF1020E2EF0030E01285EF811
:10538000086B41EB010414F5001418BFB4F5801F3D
:1053900023D3364208D4012A43EB030515F5001543
:1053A00018BFB5F5801F18D301EB010C1CF5801F49
:1053B00016D2364204D403EB030C1CF5801F0FD227
:1053C000002C10D14FEAD17C002D0CEB4C0C0CF1D1
:1053D000020C08BF4CEBD37C07E04FF0090C04E053
:1053E0004FF0080C01E04FEAD37C0CEB4C0526FA99
:1053F00005F606F00706B6F1040C06D20EEB860C95
:10540000BDE870404CF0010C6047DFE80CF022244E
:1054100013025EF804CC1B2D08D1002C88BFB4F514
:10542000801F34BF4CF4804C4CF4004CBDE87040FD
:1054300000F01CB9002C88BFB4F5001F24BF19462A
:10544000104670BD4FF000004FF00041A1F5002163
:1054500070BD19461046012851EB010418BFD4F560
:10546000001484BF5EF804CC2CF0806CBDE8704062
:1054700000F2DC80704780B54FF003065C004FEA15
:1054800003334FEA3606640D4FEA133318BF43F473
:1054900080131CD153EA125E04F1010402BF1346CB
:1054A0000022203C1B4202BF130B1205143CB3FA2E
:1054B00083FEAEF10B0ECEF1200C03FA0EF322FAAE
:1054C0000CFC02FA0EF2A4EB0E0443EA0C030FB438
:1054D00016F0010F0CBC03BC18BF2546CED180BD11
:1054E00080B50126F3E70808A0F500114FEA310165
:1054F0007047F1EE103A13F0807F1EBF01F00041BB
:105500000020704713F4006F40F0AA80094248BFA2
:105510004CF4803C4FF4C0634FEA115203F1010395
:1055200021EA025122F400629A1A48BF6FF0FE028B
:1055300041F48011352A3CD830D0152A1ED3203AA8
:105540000CD90028C2F1200321FA02F001FA03F27B
:1055500018BF42F001024FF0000130E0C2F1000339
:1055600002F1200201FA03F120FA02F241EA0201FB
:1055700000FA03F208464FF0000120E0C2F12003D8
:1055800010B400FA03F401FA03F320FA02F021FA4E
:1055900002F1224610BC43EA000010E050EA01325A
:1055A0004FF000004FF000014FF0004218BF521CB6
:1055B00005E04FF001024FF000014FF000001CF435
:1055C000803F2CF4803C18BF41F0004112421ED0B5
:1055D000F1EE103A13F4400F20D1520003D30CD057
:1055E000401C41F10001F1EE103A4CF0804C43F0C8
:1055F0000803E1EE103A00F039B85FEAAC72EFD47C
:10560000F1D1401C41F1000120F00100EBE71CF05A
:10561000804F08BF70472CF0004CE4E7094254BFAC
:1056200013F4000F13F4800FDDD1D9E7F1EE103A37
:1056300013F0807F1EBF01F000410020704713F47B
:10564000006F08BF70472DE9F050FFF749FF04F5E0
:10565000C064A4F10104314301EB0451BDE8F050F2
:105660004CF0005C4CF0800C00F0ADBA1CF0700FF8
:1056700008BF0A460FB4F1EE101A0CF0405030EAA1
:10568000814318BF4CF0804C4FEA4C0310EA814F25
:105690004FEAD36323EA112318BF23F0100341EA32
:1056A000030101F0E073E1EE101A4CEA030C0CF078
:1056B0000F030A2B1DBF082B0CF070034CEAC30C20
:1056C0004FF4003304BF33EA0C034CF4400C1CF0DD
:1056D000005F14D11CF0805F0BD11CF0804F31D1E2
:1056E0001CF0006F12D111F4807F0FBC62D000F06B
:1056F0006ABA11F4806F0FBC2BD000F064BA11F4B9
:10570000006F0FBC08BF704700F05DBA11F4007F56
:105710000FBC40F058821CF0400F1EBF4FF00040FD
:1057200040F0010070471CF0100F14BF81EA030223
:1057300042400CF00F000A2808BF4FF0FF324FF034
:10574000000326E011F4805F0FBC08BF704700F033
:105750003ABAF1EE103A2CF0805C1CF0800F14BFC6
:1057600001F0004200F0004212420CBF12EA336F17
:1057700012EAF35F0DD31CF0100F1DBF30A003C859
:105780001143314808BF104313F4805F40F01B827F
:1057900070471CF0100F02F000421DBF0FF2940082
:1057A00003C81143254808BF104313F4805F40F03D
:1057B0000A8270471CF0400F40F028801CF4404FD4
:1057C0001BD01CF4004F1CBF194610460CF480720D
:1057D00018BF8CEA520C1CF0800F0CBF40F4800004
:1057E00041F400218CEADC0313F0100F1CBF2CF0F5
:1057F0000F0C4CF0080C00F08DB91CF0100F1ABF04
:1058000012A393E80300134800F084B91CF0800F42
:1058100014BF01F0004200F000421CF0100F1BBF4B
:105820000AA393E803000B48114308BF104300F09C
:1058300071B900BF000000000000F07F0000807F11
:10584000FFFFFFFFFFFFEF7FFFFF7F7F00000000F4
:105850000000F87F0000C07F43004FEAD30C4FEAFE
:105860003C0C43401FBF40070CF1605113F0FE4F4A
:1058700070471CF0006F14D133F0004004BF19468C
:10588000704783EA830383EA430303F0070343EA91
:10589000CC010CF0004303F15A5303F54013FFF71A
:1058A0001FBD0CF0004343EA507010B540EACC0035
:1058B00000F00FF8000000BA180000044FEA0001E1
:1058C000FFF711BE4FEAE0024FEA407042F0E041BC
:1058D00070470EF1020E2EF0030E4FEA40025EF802
:1058E000084B12F1807218BFB2F5000F22D3244288
:1058F00007D44FEA410313F1807318BFB3F5000FCB
:1059000018D34FEA400C1CF5000F16D2244204D4E1
:105910004FEA410C1CF5000F0FD2002A10D14FEABC
:10592000D07C002B0CEB4C0C0CF1020C08BF4CEBA8
:10593000D17C07E04FF0090C04E04FF0080C01E0C7
:105940004FEAD17C0CEB4C0324FA03F404F0070477
:10595000B4F1040C06D20EEB840CBDE810404CF000
:10596000010C6047DFE80CF01F2013025EF804CC46
:105970001B2B08D1002A88BFB2F5000F34BF4CF4AE
:10598000804C4CF4004CBDE81040FFF76FBE002A7D
:1059900088BFB2F1807F28BF084610BD4FF000409D
:1059A000A0F5800010BD0846420018BFD2F18072F9
:1059B00084BF5EF8042C22F08062BDE8104000F243
:1059C0008A8070474FF00000E1EE100A7047FF2117
:1059D00041EAD050C0057047F1EE101A11F0807FF7
:1059E0001CBF00F00040704711F4006F40F08E8043
:1059F00000F0004343EAD05323F48073C3F1C103A2
:105A000023F00041172941D8C3F1200310FA03F114
:105A1000C3F1200320F07F4040F4000020FA03F09F
:105A200003F0004340EA030019D00B46F1EE101AD0
:105A300041F00801E1EE101A11F4400F1CD1590099
:105A400009D318BF401C06D17FEAE27398BF401CFF
:105A500038BF20F0010042F0804CFFF707BE12F083
:105A6000804F08BF7047F1EE101A944641F00801CC
:105A7000E1EE101AFFF7FABD10F0004F14BF5FEA15
:105A8000F1535FEA316338BF401CE4E7182903EBA8
:105A9000912318BF6FF000410131F1EE101A41F06F
:105AA0000801E1EE101A11F4400F18BF03F0004096
:105AB000E2D168BF03F0004009D6400203F0004085
:105AC00000F1010004BF12F0004F20F001004FF080
:105AD000804CFFF7CBBDF1EE101A11F0807F1CBF98
